:03000000020006F5
:03005F0002000399
:0300030002007682
:20006200AE82AF83EE4F600B7DFFDDFE1EBEFF011F80F1227F00BF0600501D8FF005F074F6
:2000820003800225E0D5F0FBF4F59090012CC007120062D0070F80DE7F00BF060050D58F67
:2000A200F005F07DC0E4FE3392D28008A2D2EE13FEED13FDD5F0F5EDF4F59090012CC00707
:0800C200120062D0070F80D28A
:06003500E478FFF6D8FD9F
:200013007900E94400601B7A009000CE780175A000E493F2A308B8000205A0D9F4DAF275C5
:02003300A0FF2C
:20003B007800E84400600A790175A000E4F309D8FC7800E84400600C7900900001E4F0A3C3
:04005B00D8FCD9FAFA
:0D0006007581071200CAE582600302000345
:0400CA007582002219
:00000001FF
