:03000000020006F5
:03005F0002000399
:0300030002015D9A
:20006200AE82AF83EE4F600B7DFFDDFE1EBEFF011F80F122AE82AF83BE1007BF27047E00F0
:200082007F00BEFF07BFFF047E0F7F277508E87509038E828F83C007C006120211AC82AD91
:2000A20083EC244DF582ED3402F583E493F580C2A0900005120062D006D007D2A07508E871
:2000C2007509038E828F83C007C0061201DB750864750900120211AC82AD83EC244DF5824A
:2000E200ED3402F583E493F580C2A1900005120062D006D007D2A17508647509008E828FED
:2001020083C007C0061201DB75080A750900120211AC82AD83EC244DF582ED3402F583E404
:2001220093F580C2A2900005120062D006D007D2A275080A7509008E828F831201DBAE82E2
:20014200AF83EE244DF582EF3402F583E493F580C2A3900005120062D2A3229010E1120074
:030162007680F8AC
:0A024D00C0F9A4B0999282F88090E5
:06003500E478FFF6D8FD9F
:200013007900E94400601B7A00900257780175A000E493F2A308B8000205A0D9F4DAF2753A
:02003300A0FF2C
:20016500E508450960467A01E50825E0F508E509334012F509E5829508E583950940030A67
:2001850080E6C3E50913F509E50813F508C3E5829508F5F0E58395094005F58385F082C30C
:0D01A500E50913F509E50813F508DAE12274
:20003B007800E84400600A790175A000E4F309D8FC7800E84400600C7900900001E4F0A3C3
:04005B00D8FCD9FAFA
:2001B2007A10E4FBFCE58225E0F582E58333F583EB33FBEC33FCEB9508F5F0EC9509400661
:0901D200FCABF0438201DADD22EE
:0D000600758109120249E5826003020003C2
:2001DB00C2D5E58330E70DD2D5E4C39582F582E49583F583E50930E70BE4C39508F508E45C
:1601FB009509F50912016530D50BE4C39582F582E49583F58322FF
:20021100C2D5E58330E70DD2D5E4C39582F582E49583F583E50930E70DB2D5E4C39508F588
:1802310008E49509F5091201B230D50BE4C39582F582E49583F583228D
:040249007582002298
:00000001FF
