:03000000020006F5
:03005F0002000399
:03000300020145B2
:20006200AE82AF83EE4F600B7DFFDDFE1EBEFF011F80F122AE82AF837508E8750903C00780
:20008200C00612027CAC82AD83EC24B8F582ED3402F583E493F580C2A0900005120062D0A9
:2000A20006D007D2A07508E87509038E828F83C007C00612024675086475090012027CAC65
:2000C20082AD83EC24B8F582ED3402F583E493F580C2A1900005120062D006D007D2A175A5
:2000E20008647509008E828F83C007C00612024675080A75090012027CAC82AD83EC24B850
:20010200F582ED3402F583E493F580C2A2900005120062D006D007D2A275080A7509008EBE
:20012200828F83120246AE82AF83EE24B8F582EF3402F583E493F580C2A390000512006235
:20014200D2A3227E007F0020B33D900005C007C006120062D006D00720B32C20B3118E82C3
:200162008F83C007C006120076D006D00780EC0EBE00010FC3740F9E74A78FF063F080957B
:20018200F050047E007F0020B232900005C007C006120062D006D00720B22120B2118E82EF
:2001A2008F83C007C006120076D006D00780EC1EBEFF011FEF30E7047E0F7F278E828F83A3
:0E01C200C007C006120076D006D00702014921
:0A02B800C0F9A4B0999282F880907A
:06003500E478FFF6D8FD9F
:200013007900E94400601B7A009002C2780175A000E493F2A308B8000205A0D9F4DAF275CF
:02003300A0FF2C
:2001D000E508450960467A01E50825E0F508E509334012F509E5829508E583950940030AFC
:2001F00080E6C3E50913F509E50813F508C3E5829508F5F0E58395094005F58385F082C3A1
:0D021000E50913F509E50813F508DAE12208
:20003B007800E84400600A790175A000E4F309D8FC7800E84400600C7900900001E4F0A3C3
:04005B00D8FCD9FAFA
:20021D007A10E4FBFCE58225E0F582E58333F583EB33FBEC33FCEB9508F5F0EC95094006F5
:09023D00FCABF0438201DADD2282
:0D0006007581091202B4E582600302000357
:20024600C2D5E58330E70DD2D5E4C39582F582E49583F583E50930E70BE4C39508F508E4F0
:160266009509F5091201D030D50BE4C39582F582E49583F5832228
:20027C00C2D5E58330E70DD2D5E4C39582F582E49583F583E50930E70DB2D5E4C39508F51D
:18029C0008E49509F50912021D30D50BE4C39582F582E49583F58322B6
:0402B400758200222D
:00000001FF
