:03000000020006F5
:03005F0002000399
:03000300020145B2
:20006200AE82AF83EE4F600B7DFFDDFE1EBEFF011F80F122AE82AF837508E8750903C00780
:20008200C006120253AC82AD83EC248FF582ED3402F583E493F580C2A0900005120062D0FB
:2000A20006D007D2A07508E87509038E828F83C007C00612021D750864750900120253ACB7
:2000C20082AD83EC248FF582ED3402F583E493F580C2A1900005120062D006D007D2A175CE
:2000E20008647509008E828F83C007C00612021D75080A750900120253AC82AD83EC248FCB
:20010200F582ED3402F583E493F580C2A2900005120062D006D007D2A275080A7509008EBE
:20012200828F8312021DAE82AF83EE248FF582EF3402F583E493F580C2A390000512006287
:20014200D2A3227E007F0020B329900005C007C006120062D006D00720B3180EBE00010F03
:20016200C3740F9E74A78FF063F08095F050047E007F0020B21E900005C007C006120062D0
:20018200D006D00720B20D1EBEFF011FEF30E7047E0F7F278E828F83C007C006120076D092
:0501A20006D00780A259
:0A028F00C0F9A4B0999282F88090A3
:06003500E478FFF6D8FD9F
:200013007900E94400601B7A00900299780175A000E493F2A308B8000205A0D9F4DAF275F8
:02003300A0FF2C
:2001A700E508450960467A01E50825E0F508E509334012F509E5829508E583950940030A25
:2001C70080E6C3E50913F509E50813F508C3E5829508F5F0E58395094005F58385F082C3CA
:0D01E700E50913F509E50813F508DAE12232
:20003B007800E84400600A790175A000E4F309D8FC7800E84400600C7900900001E4F0A3C3
:04005B00D8FCD9FAFA
:2001F4007A10E4FBFCE58225E0F582E58333F583EB33FBEC33FCEB9508F5F0EC950940061F
:09021400FCABF0438201DADD22AB
:0D00060075810912028BE582600302000380
:20021D00C2D5E58330E70DD2D5E4C39582F582E49583F583E50930E70BE4C39508F508E419
:16023D009509F5091201A730D50BE4C39582F582E49583F583227A
:20025300C2D5E58330E70DD2D5E4C39582F582E49583F583E50930E70DB2D5E4C39508F546
:1802730008E49509F5091201F430D50BE4C39582F582E49583F5832209
:04028B007582002256
:00000001FF
