:03000000020006F5
:03005F0002000399
:0300030002015D9A
:20006200AE82AF83EE4F600B7DFFDDFE1EBEFF011F80F122AE82AF83BE1007BF27047E00F0
:200082007F00BEFF07BFFF047E0F7F277508E87509038E828F83C007C006120220AC82AD82
:2000A20083EC245CF582ED3402F583E493F580C2A0900005120062D006D007D2A07508E862
:2000C2007509038E828F83C007C0061201EA750864750900120220AC82AD83EC245CF5821D
:2000E200ED3402F583E493F580C2A1900005120062D006D007D2A17508647509008E828FED
:2001020083C007C0061201EA75080A750900120220AC82AD83EC245CF582ED3402F583E4D7
:2001220093F580C2A2900005120062D006D007D2A275080A7509008E828F831201EAAE82D3
:20014200AF83EE245CF582EF3402F583E493F580C2A3900005120062D2A322758902758CF7
:1201620006758A06D28CD2A9D2AF9010E112007680F8A5
:0A025C00C0F9A4B0999282F88090D6
:06003500E478FFF6D8FD9F
:200013007900E94400601B7A00900266780175A000E493F2A308B8000205A0D9F4DAF2752B
:02003300A0FF2C
:20017400E508450960467A01E50825E0F508E509334012F509E5829508E583950940030A58
:2001940080E6C3E50913F509E50813F508C3E5829508F5F0E58395094005F58385F082C3FD
:0D01B400E50913F509E50813F508DAE12265
:20003B007800E84400600A790175A000E4F309D8FC7800E84400600C7900900001E4F0A3C3
:04005B00D8FCD9FAFA
:2001C1007A10E4FBFCE58225E0F582E58333F583EB33FBEC33FCEB9508F5F0EC9509400652
:0901E100FCABF0438201DADD22DF
:0D000600758109120258E5826003020003B3
:2001EA00C2D5E58330E70DD2D5E4C39582F582E49583F583E50930E70BE4C39508F508E44D
:16020A009509F50912017430D50BE4C39582F582E49583F58322E0
:20022000C2D5E58330E70DD2D5E4C39582F582E49583F583E50930E70DB2D5E4C39508F579
:1802400008E49509F5091201C130D50BE4C39582F582E49583F583226F
:040258007582002289
:00000001FF
