:03000000020006F5
:03005F0002000399
:030003000200CC2C
:20006200AE82AF83EE4F600B7DFFDDFE1EBEFF011F80F122AF828F055305F0E4C4CDC454F5
:200082000F6DCD540FCD6DCD30E30244F053070FEFC454F0FFED42078F055305CCE4A2E7A8
:2000A20013CD13CDA2E713CD13CD530733EF2F25E0FFED42078F055305AAE4A2E713CD135A
:2000C200CD530755EF2F4DF582227E007F00C3EE94FFEF64809480501D8E82C007C006125A
:2000E200007685829090012C120062D006D0071EBEFF011F80D87F00BF050050197590000F
:1701020090012CC0071200627590FF90012C120062D0070F80E2224F
:06003500E478FFF6D8FD9F
:200013007900E94400601B7A0090011D780175A000E493F2A308B8000205A0D9F4DAF27575
:02003300A0FF2C
:20003B007800E84400600A790175A000E4F309D8FC7800E84400600C7900900001E4F0A3C3
:04005B00D8FCD9FAFA
:0D000600758107120119E5826003020003F5
:0401190075820022C9
:00000001FF
