:03000000020006F5
:03005F0002000399
:0300030002007682
:20006200AE82AF83EE4F600B7DFFDDFE1EBEFF011F80F1227E007F00C3EE94FFEF648094E7
:2000820080501B8E05EDF4F590900064C007C006120062D006D0070EBE00DD0F80DA7F0047
:1F00A200BF0500501975900090012CC0071200627590FF90012C120062D0070F80E22276
:06003500E478FFF6D8FD9F
:200013007900E94400601B7A009000C5780175A000E493F2A308B8000205A0D9F4DAF275CE
:02003300A0FF2C
:20003B007800E84400600A790175A000E4F309D8FC7800E84400600C7900900001E4F0A3C3
:04005B00D8FCD9FAFA
:0D0006007581071200C1E58260030200034E
:0400C1007582002222
:00000001FF
