:03000000020006F5
:03005F0002000399
:030003000200C038
:20006200AE82AF831EBEFF011FEE4F70F722AF827E00BE08005024EF30E704D2808002C2D2
:200082008090000AC007C006120062D006D007D2818F05ED2DFFC2810E80D722D2809000EA
:2000A20001120062D281C280900001120062C28122C280900001120062D281D280221200AA
:2000C2009E758241120070D281900001120062A280C2817F007E07EE20E74AC281D28190A0
:2000E2000001C007C006120062D006D0072080248EF005F07401800225E0D5F0FB4207EF24
:20010200F4F590900064C007C006120062D006D0077590FF90000AC007C006120062D0064D
:20012200D0071E80B2D280900001C007120062D281900001120062C2811200B312009E75F3
:200142008240120070D281900001120062D007308012759000900064C007120062D00775E8
:2001620090FF800D7590FF900064C007120062D007C2817582FFC007120070D281900001F1
:20018200120062D007308018759000900064C0071200627590FF900064120062D007800D46
:2001A2007590FF900064C007120062D007C281EFF4F582120070D28190000112006230800C
:1A01C2000890000A12006280097590FF900064120062C2811200B30200C04E
:06003500E478FFF6D8FD9F
:200013007900E94400601B7A009001E0780175A000E493F2A308B8000205A0D9F4DAF275B2
:02003300A0FF2C
:20003B007800E84400600A790175A000E4F309D8FC7800E84400600C7900900001E4F0A3C3
:04005B00D8FCD9FAFA
:0D0006007581071201DCE582600302000332
:0401DC007582002206
:00000001FF
