:03000000020006F5
:03005F0002000399
:030003000201B443
:20006200AE82AF831EBEFF011FEE4F70F722AF827E00BE08005024EF30E704D2808002C2D2
:200082008090000AC007C006120062D006D007D2818F05ED2DFFC2810E80D7C28122AF8258
:2000A20074045FFE7F007D00BD0300501FEE4F6004D2808002C28090000AC007C006C0059B
:2000C200120062D005D006D0070D80DCD281C281C281227F07EF20E72BC281D281900001F6
:2000E200C007120062D0073080088F06EEF4F59080037590FF90000AC007120062D007C243
:20010200811F80D122D280900001120062D281900001120062C280900001120062C281226F
:20012200C280900001120062D281D28022AE82AF83EE4F600B7DFFDDFE1EBEFF011F80F1E2
:2001420022D28190006412006230800E7590009000641200627590FF80097590FF90006410
:20016200120062C28122E58224FF9280900001120062D28190000A120062C28122AF827597
:20018200827EC00712007090000A120062120143D0078F8212007002014375827F12007008
:2001A20090000A1200621201431200D575820002016812010775820C12017F12012290001C
:0401C2006402012FA3
:06003500E478FFF6D8FD9F
:200013007900E94400601B7A009001CA780175A000E493F2A308B8000205A0D9F4DAF275C8
:02003300A0FF2C
:20003B007800E84400600A790175A000E4F309D8FC7800E84400600C7900900001E4F0A3C3
:04005B00D8FCD9FAFA
:0D0006007581071201C6E582600302000348
:0401C600758200221C
:00000001FF
