:03000000020006F5
:03005F0002000399
:030003000202B73F
:20006200AE82AF831EBEFF011FEE4F70F722AF827E00BE08005024EF30E704D2808002C2D2
:2000820080900001C007C006120062D006D007D2818F05ED2DFFC2810E80D7C281227F070C
:2000A200EF20E72BC281D281900001C007120062D0073080088F06EEF4F59080037590FFA9
:2000C20090000AC007120062D007C2811F80D122D280900001120062D281900001120062EE
:2000E200C280900001120062C28122C280900001120062D281D28022AE82AF83EE4F600B3A
:200102007DFFDDFE1EBEFF011F80F122D28190000112006230800E75900090006412006275
:200122007590FF80097590FF900001120062C28122E58224FF9280900001120062D281903E
:20014200000A120062C28122AD82AE83AFF0C007C006C0051200D275827E120070900001FD
:2001620012006212010ED005D006D0077B007C00C3EB9508EC64808509F063F08095F0502E
:200182003AEB2DF8EC3EF98F02888289838AF0120305F582C007C006C005C004C003120053
:2001A2007090000112006212010ED003D004D005D006D0070BBB00B80C80B50200EDAF829F
:2001C20074F05FFEEFC454F0FF5307F0740C4EF50A74084EF50B740C4FF50C74084FF50DE8
:2001E20075080475090090000A75F04002014AAF8274F05FFEEFC454F0FF5307F0740D4E71
:20020200F50E74094EF50F740D4FF51074094FF51175080475090090000E75F04002014AD4
:200222007582011201C090012C020062AE82AF83BE0005BF00028008BE010DBF000A800548
:2002420043128080034312C08512820201C0AD82AE83AFF08D828E838FF0120305FC601827
:200262008C820DBD00010EC007C006C0051201F1D005D006D00780DC227582021201C090E3
:2002820000371200627582281201C090003712006275820C1201C090003712006275820676
:2002A2001201C09000371200627582011201C090003702006212027B900037120062758277
:2002C200801201C09000371200627F41EF24AF40128F82C0071201F1904B40120062D00778
:2002E2000F80E97582C01201C090003712006290032575F08012025090033175F080120201
:030302005080FE2A
:1C03250048656C6C6F206475646573004B656E6E7920697320477265617421005E
:06003500E478FFF6D8FD9F
:200013007900E94400601B7A00900341780175A000E493F2A308B8000205A0D9F4DAF2754F
:02003300A0FF2C
:20003B007800E84400600A790175A000E4F309D8FC7800E84400600C7900900001E4F0A3C3
:04005B00D8FCD9FAFA
:0D000600758113120321E5826003020003DF
:1C03050020F71430F6148883A88220F507E6A88375830022E280F7E49322E02207
:0403210075820022BF
:00000001FF
