:03000000020006F5
:03005F0002000399
:03000300020130C7
:20006200AE82AF831EBEFF011FEE4F70F722AF827E00BE08005024EF30E704D2808002C2D2
:200082008090000AC007C006120062D006D007D2818F05ED2DFFC2810E80D7C28122AF8258
:2000A20074045FFE7F007D00BD0300501FEE4F6004D2808002C28090000AC007C006C0059B
:2000C200120062D005D006D0070D80DCD281C281C28122D280900001120062D281C2809048
:2000E2000001120062C28122C280900001120062D281D28022AE82AF83EE4F600B7DFFDDB3
:20010200FE1EBEFF011F80F122D28190006412006230800E7590009000641200627590FF67
:2001220080097590FF900064120062C281221200D575827E120070D28190000112006230FD
:20014200800E7590009000641200627590FF80097590FF900064120062C2817F00BF080020
:200162005013C28090000AC007120062D007D281C2810F80E8C281D28190006412006230F1
:20018200800E7590009000641200627590FF80097590FF900064120062C2817582381200E5
:2001A2007012010B75820012007012010B75820C12007012010B75820012007012010B7569
:2001C200820112007012010B75820012007012010B75820212007012010B1200EA0201309B
:06003500E478FFF6D8FD9F
:200013007900E94400601B7A009001E6780175A000E493F2A308B8000205A0D9F4DAF275AC
:02003300A0FF2C
:20003B007800E84400600A790175A000E4F309D8FC7800E84400600C7900900001E4F0A3C3
:04005B00D8FCD9FAFA
:0D0006007581071201E2E58260030200032C
:0401E2007582002200
:00000001FF
