:03000000020006F5
:03005F0002000399
:030003000202F303
:20006200AE82AF831EBEFF011FEE4F70F722AF827E00BE08005024EF30E704D2808002C2D2
:200082008090000AC007C006120062D006D007D2818F05ED2DFFC2810E80D7C281227F0703
:2000A200EF20E72BC281D281900001C007120062D0073080088F06EEF4F59080037590FFA9
:2000C20090000AC007120062D007C2811F80D122D280900001120062D281900001120062EE
:2000E200C280900001120062C28122C280900001120062D281D28022AE82AF83EE4F600B3A
:200102007DFFDDFE1EBEFF011F80F122D28190003212006230800E75900090006412006244
:200122007590FF80097590FF900064120062C28122E58224FF9280900001120062D28190DB
:20014200000A120062C28122AD82AE83AFF0C007C006C0051200D275827E12007090000AF4
:2001620012006212010ED005D006D0077B007C00C3EB9508EC64808509F063F08095F0502E
:200182003AEB2DF8EC3EF98F02888289838AF012033AF582C007C006C005C004C00312001E
:2001A2007090000A12006212010ED003D004D005D006D0070BBB00B80C80B50200EDAF8296
:2001C20074F05FFEEFC454F0FF5307F0740C4EF50A74084EF50B740C4FF50C74084FF50DE8
:2001E20075080475090090000A75F04002014AAF8274F05FFEEFC454F0FF5307F0740D4E71
:20020200F50E74094EF50F740D4FF51074094FF51175080475090090000E75F04002014AD4
:200222007582011201C090012C020062AE82AF83BE0005BF00028008BE010DBF000A800548
:2002420043128080034312C08512820201C0AD82AE83AFF08D828E838FF012033AFC6018F2
:200262008C820DBD00010EC007C006C0051201F1D005D006D00780DC22900AF012006275CC
:2002820082301201C090012C1200627582301201C090000A1200627582301201C0900258BA
:2002A2001200627582201201C09002581200627582281201C0900037120062758208120141
:2002C200C09000371200627582011201C09000371200629000371200627582061201C09080
:2002E200003712006275820C1201C09000700200629003E812006212027B9003E8120062AA
:2003020012022290003712006275120375130090000012022E90003712006275820212013F
:18032200C090003712006290003712006290035A75F08012025080FED9
:0C035A0048656C6C6F206475646573006E
:06003500E478FFF6D8FD9F
:200013007900E94400601B7A00900366780175A000E493F2A308B8000205A0D9F4DAF2752A
:02003300A0FF2C
:20003B007800E84400600A790175A000E4F309D8FC7800E84400600C7900900001E4F0A3C3
:04005B00D8FCD9FAFA
:0D000600758113120356E5826003020003AA
:1C033A0020F71430F6148883A88220F507E6A88375830022E280F7E49322E022D2
:04035600758200228A
:00000001FF
