:03000000020006F5
:08005F00E4F508F509020003B5
:0300030002022FC7
:20006700AE82AF83EE4F600B7DFFDDFE1EBEFF011F80F122AE82AF83750CE8750D03C00773
:20008700C0061203EEAC82AD83EC242AF582ED3404F583E493F580C2A0900005120067D0B8
:2000A70006D007D2A0750CE8750D038E828F83C007C0061203B8750C64750D001203EEAC6A
:2000C70082AD83EC242AF582ED3404F583E493F580C2A1900005120067D006D007D2A17527
:2000E7000C64750D008E828F83C007C0061203B8750C0A750D001203EEAC82AD83EC242AE3
:20010700F582ED3404F583E493F580C2A2900005120067D006D007D2A2750C0A750D008EAA
:20012700828F831203B8AE82AF83EE242AF582EF3404F583E493F580C2A390000512006744
:20014700D2A37401B50A0614B50B0280028025E508F4F5900508E4B50802050974FFB50898
:2001670006F4B5090280028005E4F508F5099000051200677402B50A06E4B50B02800280E7
:20018700547F00BF0600501D8FF005F07403800225E0D5F0FBF4F590900005C007120067D3
:2001A700D0070F80DE7F00BF060050298FF005F07DC0E4FE3392D28008A2D2EE13FEED1312
:2001C700FDD5F0F5EDF4F590900005C007120067D0070F80D27403B50A06E4B50B0280018B
:2001E700227406B50806E4B5090280028005E4F508F5098508F005F07403800225E0D5F0DA
:20020700FBFF8508F005F07DC0E4FE3392D28008A2D2EE13FEED13FDD5F0F5ED4207EFF4EA
:20022700F5909000050200677E007F007C007D0020B351900005C007C006C005C00412005D
:2002470067D004D005D006D00720B33820B31D8C0A8D0B8E828F83C007C006C005C0041267
:20026700007BD004D005D006D00780E00EBE00010FC3740F9E74A78FF063F08095F0500440
:200287007E007F0020B246900005C007C006C005C004120067D004D005D006D00720B22DC9
:2002A70020B21D8C0A8D0B8E828F83C007C006C005C00412007BD004D005D006D00780E09F
:2002C7001EBEFF011FEF30E7047E0F7F278C0A8D0B8E828F83C007C006C005C00412007BEC
:2002E700D004D005D006D00730B503020237900005C007C006C005C004120067D004D005B1
:20030700D006D00720B51D8C0A8D0B8E828F83C007C006C005C00412007BD004D005D006C5
:1B032700D00780E00CBC00010DBC0407BD00047C007D00E4F508F50902023713
:0A042A00C0F9A4B0999282F8809006
:06003500E478FFF6D8FD9F
:200013007900E94400601B7A00900434780175A000E493F2A308B8000205A0D9F4DAF2755B
:02003300A0FF2C
:20034200E50C450D60467A01E50C25E0F50CE50D334012F50DE582950CE583950D40030A68
:2003620080E6C3E50D13F50DE50C13F50CC3E582950CF5F0E583950D4005F58385F082C315
:0D038200E50D13F50DE50C13F50CDAE12285
:20003B007800E84400600A790175A000E4F309D8FC7800E84400600C7900900001E4F0A3C3
:04005B00D8FCD9FAFA
:20038F007A10E4FBFCE58225E0F582E58333F583EB33FBEC33FCEB950CF5F0EC950D40067A
:0903AF00FCABF0438201DADD220F
:0D00060075810D120426E5826003020003DF
:2003B800C2D5E58330E70DD2D5E4C39582F582E49583F583E50D30E70BE4C3950CF50CE471
:1603D800950DF50D12034230D50BE4C39582F582E49583F5832239
:2003EE00C2D5E58330E70DD2D5E4C39582F582E49583F583E50D30E70DB2D5E4C3950CF5A2
:18040E000CE4950DF50D12038F30D50BE4C39582F582E49583F58322C3
:0404260075820022B9
:00000001FF
