:03000000020006F5
:03005F0002000399
:030003000201A354
:20006200AE82AF83EE4F600B7DFFDDFE1EBEFF011F80F122AE82AF831EBEFF011FEE4F7085
:20008200F722AE82AF83750BE8750C03C007C006120559AC82AD83EC2495F582ED3405F565
:2000A20083E493F580C2A0900005120076D006D007D2A0750BE8750C038E828F83C007C09C
:2000C20006120523750B64750C00120559AC82AD83EC2495F582ED3405F583E493F580C243
:2000E200A1900005120076D006D007D2A1750B64750C008E828F83C007C006120523750B52
:200102000A750C00120559AC82AD83EC2495F582ED3405F583E493F580C2A29000051200D3
:2001220076D006D007D2A2750B0A750C008E828F83120523AE82AF83EE2495F582EF340517
:20014200F583E493F580C2A3900005120076D2A322D280900001120076D281C2809000018F
:20016200120076C28122C280900001120076D281D28022AF827E00BE08005024EF30E7047B
:20018200D2808002C28090000AC007C006120076D006D007D2818F05ED2DFFC2810E80D743
:2001A20022E4FEFFF508F509FAFB750A017900C007C006C003C002C00112015375824112CE
:2001C2000175D281900001120076D001D002D003D006D007A280C28178077D00ED20E76162
:2001E200C281D281900001C007C006C005C003C002C001C000120076D000D001D002D003B0
:20020200D005D006D00720800F88F005F07401800225E0D5F0FB420190000AC007C006C058
:2002220005C003C002C001C000120076D000D001D002D003D005D006D00718B8FF011D80F4
:200242009BD280900001C007C006C003C002C001120076D281900001120076C28112016899
:20026200120153758240120175D281900001120076A280C2817582FF120175D28190000124
:20028200120076D001A280C281E9F4F582120175D281900001120076A280C281120168D0A6
:2002A20002D003D006D00720B52E90000512007630B5FD0508E4B5080205097404B50806BF
:2002C200E4B5090280028005E4F508F5097E007F007A007B007590FFE508450960030203F9
:2002E2008F20B34D900005C007C006C003C002120076D002D003D006D00720B3340EBE00F9
:20030200010F20B3198E828F83C007C006C003C002120084D002D003D006D00780E4C37428
:200322000F9E74A78FF063F08095F050047E007F0020B242900005C007C006C003C00212FE
:200342000076D002D003D006D00720B2291EBEFF011F20B2198E828F83C007C006C003C0C0
:2003620002120084D002D003D006D00780E4EF30E7047E0F7F278E828F83C007C006C0037E
:20038200C002120084D002D003D006D0077401B5080614B509028002802B8A05EDF4F59083
:2003A2000ABA00010BBAFF07BB00047A007B00900064C007C006C003C002120062D002D0DB
:2003C20003D006D0077402B50806E4B5090280028076BA0610BB000DE50AB40100E433F5CE
:2003E2000A7A007B00E50A60288AF005F07403800225E0D5F0FBF4F590900064C007C0065E
:20040200C003C002120062D002D003D006D00780328AF005F07CC0E4FD3392D28008A2D2BE
:20042200ED13FDEC13FCD5F0F5ECF4F590900064C007C006C003C002120062D002D003D0B4
:2004420006D0070ABA00010B7403B50806E4B5090280030201AFBA0607BB00047A007B005F
:200462008AF005F07403800225E0D5F0FBFD8AF005F079C0E4FC3392D28008A2D2EC13FC3A
:20048200E913F9D5F0F5E94205EDF4F5900ABA00010B900064C007C006C003C002120062CB
:0B04A200D002D003D006D0070201AF4B
:0A059500C0F9A4B0999282F880909A
:06003500E478FFF6D8FD9F
:200013007900E94400601B7A0090059F780175A000E493F2A308B8000205A0D9F4DAF275EF
:02003300A0FF2C
:2004AD00E50B450C60467A01E50B25E0F50BE50C334012F50CE582950BE583950C40030A04
:2004CD0080E6C3E50C13F50CE50B13F50BC3E582950BF5F0E583950C4005F58385F082C3AF
:0D04ED00E50C13F50CE50B13F50BDAE1221D
:20003B007800E84400600A790175A000E4F309D8FC7800E84400600C7900900001E4F0A3C3
:04005B00D8FCD9FAFA
:2004FA007A10E4FBFCE58225E0F582E58333F583EB33FBEC33FCEB950BF5F0EC950C400610
:09051A00FCABF0438201DADD22A2
:0D00060075810C120591E582600302000374
:20052300C2D5E58330E70DD2D5E4C39582F582E49583F583E50C30E70BE4C3950BF50BE407
:16054300950CF50C1204AD30D50BE4C39582F582E49583F5832262
:20055900C2D5E58330E70DD2D5E4C39582F582E49583F583E50C30E70DB2D5E4C3950BF537
:180579000BE4950CF50C1204FA30D50BE4C39582F582E49583F58322EE
:04059100758200224D
:00000001FF
