:03000000020006F5
:03005F0002000399
:0300030002023ABC
:20006200AE82AF837515E8751603C007C00612079DAC82AD83EC24D9F582ED3407F583E497
:2000820093F580C2A0900005120663D006D007D2A07515E87516038E828F83C007C0061204
:2000A200076775156475160012079DAC82AD83EC24D9F582ED3407F583E493F580C2A19064
:2000C2000005120663D006D007D2A17515647516008E828F83C007C00612076775150A75CD
:2000E200160012079DAC82AD83EC24D9F582ED3407F583E493F580C2A2900005120663D0A4
:2001020006D007D2A275150A7516008E828F83120767AE82AF83EE24D9F582EF3407F58365
:20012200E493F580C2A3900005120663D2A3227E467F00C3E49E74808FF063F08095F05022
:200142001EB2B68E828F83C007C006120663900005120663D006D0071EBEFF011F80D47E63
:20016200147F00C3E49E74808FF063F08095F050397C327D00C3E49C74808DF063F080950A
:20018200F05020B2B68E828F83C007C006C005C004120663D004D005D006D0071CBCFF01B4
:2001A2001D80D21EBEFF011F80B97E327F00C3E49E74808FF063F08095F05017B2B69000FC
:2001C2000AC007C006120663D006D0071EBEFF011F80DB7E327F00C3E49E74808FF063F0CE
:2001E2008095F05017B2B6900005C007C006120663D006D0071EBEFF011F80DB90003712B0
:2002020006637582021205D69000371206639007E375F0801206389000371206637582C3A0
:200222001205D69000371206639007EF75F0801206389000370206639003E8120663120197
:20024200319003E8120663E4FEFFF508F509FAFB750A017900C007C006C003C002C00112C6
:2002620006857582411206A7D281900001120663D001D002D003D006D007A280C281780794
:200282007D00ED20E761C281D281900001C007C006C005C003C002C001C000120663D000C0
:2002A200D001D002D003D005D006D00720800F88F005F07401800225E0D5F0FB4201900099
:2002C2000AC007C006C005C003C002C001C000120663D000D001D002D003D005D006D00777
:2002E20018B8FF011D809BD280900001C007C006C003C002C001120663D2819000011206C7
:2003020063C28112069A1206857582401206A7D281900001120663A280C2817582FF12061E
:20032200A7D281900001120663D001A280C281E9F4F5821206A7D281900001120663A280EB
:20034200C28112069AD002D003D006D00720B52E90000512066330B5FD0508E4B5080205AA
:20036200097404B50806E4B5090280028005E4F508F5097E007F007A007B007590FFE508CA
:200382004509600302043520B34D900005C007C006C003C002120663D002D003D006D007DB
:2003A20020B3340EBE00010F20B3198E828F83C007C006C003C002120062D002D003D00649
:2003C200D00780E4C3740F9E74A78FF063F08095F050047E007F0020B242900005C007C089
:2003E20006C003C002120663D002D003D006D00720B2291EBEFF011F20B2198E828F83C0E0
:2004020007C006C003C002120062D002D003D006D00780E4EF30E7047E0F7F278E828F83FF
:20042200C007C006C003C002120062D002D003D006D0077401B5080614B509028002802BA9
:200442008A05EDF4F5900ABA00010BBAFF07BB00047A007B00900064C007C006C003C0025B
:20046200120671D002D003D006D0077402B50806E4B5090280028076BA0610BB000DE50AC3
:20048200B40100E433F50A7A007B00E50A60288AF005F07403800225E0D5F0FBF4F59090ED
:2004A2000064C007C006C003C002120671D002D003D006D00780328AF005F07CC0E4FD3378
:2004C20092D28008A2D2ED13FDEC13FCD5F0F5ECF4F590900064C007C006C003C002120685
:2004E20071D002D003D006D0070ABA00010B7403B50806E4B509028003020255BA0607BB2B
:2005020000047A007B008AF005F07403800225E0D5F0FBFD8AF005F079C0E4FC3392D28017
:2005220008A2D2EC13FCE913F9D5F0F5E94205EDF4F5900ABA00010B900064C007C006C0EC
:1105420003C002120671D002D003D006D007020255AF
:2007D900C0F9A4B0999282F8809048656C6C6F20576F726C6400426F6220697320477265D5
:0407F9006174210006
:20055300D281900001120663A280C28122AD82AE83AFF0C007C006C00512068575827E122D
:2005730006A7900001120663120553D005D006D0077B007C00C3EB950BEC6480850CF063CA
:20059300F08095F0503AEB2DF8EC3EF98F02888289838AF012074BF582C007C006C005C088
:2005B30004C0031206A7900001120663120553D003D004D005D006D0070BBB00B80C80B544
:2005D30002069AAF8274F05FFEEFC454F0FF5307F0740C4EF50D74084EF50E740C4FF50FC4
:2005F30074084FF510750B04750C0090000D75F040020560AF8274F05FFEEFC454F0FF532F
:2006130007F0740D4EF51174094EF512740D4FF51374094FF514750B04750C009000117561
:20063300F040020560AD82AE83AFF08D828E838FF012074BFC60188C820DBD00010EC007EC
:10065300C006C005120607D005D006D00780DC22ED
:20066300AE82AF831EBEFF011FEE4F70F722AE82AF83EE4F600B7DFFDDFE1EBEFF011F8078
:20068300F122D280900001120663D281C280900001120663C28122C280900001120663D2C0
:2006A30081D28022AF827E00BE08005024EF30E704D2808002C28090000AC007C0061206FA
:1206C30063D006D007D2818F05ED2DFFC2810E80D7224B
:06003500E478FFF6D8FD9F
:200013007900E94400601B7A009007FD780175A000E493F2A308B8000205A0D9F4DAF2758F
:02003300A0FF2C
:2006D500E515451660467A01E51525E0F515E516334012F516E5829515E583951640030A8A
:2006F50080E6C3E51613F516E51513F515C3E5829515F5F0E58395164005F58385F082C349
:0D071500E51613F516E51513F515DAE122CA
:20003B007800E84400600A790175A000E4F309D8FC7800E84400600C7900900001E4F0A3C3
:04005B00D8FCD9FAFA
:200722007A10E4FBFCE58225E0F582E58333F583EB33FBEC33FCEB9515F5F0EC95164006D1
:09074200FCABF0438201DADD2278
:0D0006007581161207D5E582600302000324
:1C074B0020F71430F6148883A88220F507E6A88375830022E280F7E49322E022BD
:20076700C2D5E58330E70DD2D5E4C39582F582E49583F583E51630E70BE4C39515F515E4A3
:160787009516F5161206D530D50BE4C39582F582E49583F58322DE
:20079D00C2D5E58330E70DD2D5E4C39582F582E49583F583E51630E70DB2D5E4C39515F5DD
:1807BD0015E49516F51612072230D50BE4C39582F582E49583F583225F
:0407D5007582002207
:00000001FF
