:03000000020006F5
:03005F0002000399
:03000300020145B2
:20006200AE82AF83EE4F600B7DFFDDFE1EBEFF011F80F122AE82AF83750BE8750C03C0077A
:20008200C006120401AC82AD83EC243DF582ED3404F583E493F580C2A0900005120062D09B
:2000A20006D007D2A0750BE8750C038E828F83C007C0061203CB750B64750C00120401AC4C
:2000C20082AD83EC243DF582ED3404F583E493F580C2A1900005120062D006D007D2A1751E
:2000E2000B64750C008E828F83C007C0061203CB750B0A750C00120401AC82AD83EC243DB2
:20010200F582ED3404F583E493F580C2A2900005120062D006D007D2A2750B0A750C008EB6
:20012200828F831203CBAE82AF83EE243DF582EF3404F583E493F580C2A390000512006228
:20014200D2A322E4FEFFF508F509FAFB750A0120B52E90000512006230B5FD0508E4B50819
:200162000205097404B50806E4B5090280028005E4F508F5097E007F007A007B007590FFB2
:20018200E5084509600302023720B34D900005C007C006C003C002120062D002D003D006CE
:2001A200D00720B33420B3198E828F83C007C006C003C002120076D002D003D006D00780E5
:2001C200E40EBE00010FC3740F9E74A78FF063F08095F050047E007F0020B242900005C0CD
:2001E20007C006C003C002120062D002D003D006D00720B22920B2198E828F83C007C00650
:20020200C003C002120076D002D003D006D00780E41EBEFF011FEF30E7047E0F7F278E82D1
:200222008F83C007C006C003C002120076D002D003D006D0077401B5080614B50902800230
:20024200802B8A01E9F4F5900ABA00010BBAFF07BB00047A007B00900064C007C006C0037C
:20026200C002120062D002D003D006D0077402B50806E4B5090280028076BA0610BB000D07
:20028200E50AB40100E433F50A7A007B00E50A60288AF005F07403800225E0D5F0FBF4F520
:2002A20090900064C007C006C003C002120062D002D003D006D00780328AF005F078C0E4A3
:2002C200F93392D28008A2D2E913F9E813F8D5F0F5E8F4F590900064C007C006C003C00287
:2002E200120062D002D003D006D0070ABA00010B7403B50806E4B509028003020151BA06F1
:2003020007BB00047A007B008AF005F07403800225E0D5F0FBF98AF005F078C0E4FD3392AD
:20032200D28008A2D2ED13FDE813F8D5F0F5E84201E9F4F5900ABA00010B900064C007C06B
:1303420006C003C002120062D002D003D006D00702015103
:0A043D00C0F9A4B0999282F88090F3
:06003500E478FFF6D8FD9F
:200013007900E94400601B7A00900447780175A000E493F2A308B8000205A0D9F4DAF27548
:02003300A0FF2C
:20035500E50B450C60467A01E50B25E0F50BE50C334012F50CE582950BE583950C40030A5D
:2003750080E6C3E50C13F50CE50B13F50BC3E582950BF5F0E583950C4005F58385F082C308
:0D039500E50C13F50CE50B13F50BDAE12276
:20003B007800E84400600A790175A000E4F309D8FC7800E84400600C7900900001E4F0A3C3
:04005B00D8FCD9FAFA
:2003A2007A10E4FBFCE58225E0F582E58333F583EB33FBEC33FCEB950BF5F0EC950C400669
:0903C200FCABF0438201DADD22FC
:0D00060075810C120439E5826003020003CD
:2003CB00C2D5E58330E70DD2D5E4C39582F582E49583F583E50C30E70BE4C3950BF50BE461
:1603EB00950CF50C12035530D50BE4C39582F582E49583F5832215
:20040100C2D5E58330E70DD2D5E4C39582F582E49583F583E50C30E70DB2D5E4C3950BF590
:180421000BE4950CF50C1203A230D50BE4C39582F582E49583F58322A0
:0404390075820022A6
:00000001FF
