:03000000020006F5
:03005F0002000399
:0300030002023ABC
:20006200AE82AF837515E8751603C007C0061207C7AC82AD83EC2403F582ED3408F583E442
:2000820093F580C2A090000512057DD006D007D2A07515E87516038E828F83C007C00612EB
:2000A20007917515647516001207C7AC82AD83EC2403F582ED3408F583E493F580C2A190E5
:2000C200000512057DD006D007D2A17515647516008E828F83C007C00612079175150A758A
:2000E20016001207C7AC82AD83EC2403F582ED3408F583E493F580C2A290000512057DD036
:2001020006D007D2A275150A7516008E828F83120791AE82AF83EE2403F582EF3408F58310
:20012200E493F580C2A390000512057DD2A3227E467F00C3E49E74808FF063F08095F05009
:200142001EB2B68E828F83C007C00612057D90000512057DD006D0071EBEFF011F80D47E31
:20016200147F00C3E49E74808FF063F08095F050397C327D00C3E49C74808DF063F080950A
:20018200F05020B2B68E828F83C007C006C005C00412057DD004D005D006D0071CBCFF019B
:2001A2001D80D21EBEFF011F80B97E327F00C3E49E74808FF063F08095F05017B2B69000FC
:2001C2000AC007C00612057DD006D0071EBEFF011F80DB7E327F00C3E49E74808FF063F0B5
:2001E2008095F05017B2B6900005C007C00612057DD006D0071EBEFF011F80DB9000371297
:20020200057D75820212067290003712057D90080D75F0801206D490003712057D7582C3F1
:2002220012067290003712057D90081975F0801206D490003702057D9003E812057D1201E8
:20024200319003E812057DE4FEFFF508F509FAFB750A017900C007C006C003C002C00112AD
:20026200059F7582411205C1D28190000112057DD001D002D003D006D007A280C281780749
:200282007D00ED20E761C281D281900001C007C006C005C003C002C001C00012057DD000A7
:2002A200D001D002D003D005D006D00720800F88F005F07401800225E0D5F0FB4201900099
:2002C2000AC007C006C005C003C002C001C00012057DD000D001D002D003D005D006D0075E
:2002E20018B8FF011D809BD280900001C007C006C003C002C00112057DD2819000011205AF
:200302007DC2811205B412059F7582401205C1D28190000112057DA280C2817582FF1205A1
:20032200C1D28190000112057DD001A280C281E9F4F5821205C1D28190000112057DA28086
:20034200C2811205B4D002D003D006D00720B53C90000512057DB2B690006412058B900073
:200362006412058B30B5FD0508E4B5080205097404B50806E4B5090280028005E4F508F519
:20038200097E007F007A007B007590FF20B419900005C007C006C003C00212057DD002D092
:2003A20003D006D00730B4FDE5084509600302045F20B34D900005C007C006C003C00212CE
:2003C200057DD002D003D006D00720B3340EBE00010F20B3198E828F83C007C006C003C046
:2003E20002120062D002D003D006D00780E4C3740F9E74A78FF063F08095F050047E007FA8
:200402000020B242900005C007C006C003C00212057DD002D003D006D00720B2291EBEFF63
:20042200011F20B2198E828F83C007C006C003C002120062D002D003D006D00780E4EF3032
:20044200E7047E0F7F278E828F83C007C006C003C002120062D002D003D006D0077401B558
:20046200080614B509028002802B8A05EDF4F5900ABA00010BBAFF07BB00047A007B0090A2
:200482000064C007C006C003C00212058BD002D003D006D0077402B50806E4B50902800291
:2004A2008076BA0610BB000DE50AB40100E433F50A7A007B00E50A60288AF005F074038020
:2004C2000225E0D5F0FBF4F590900064C007C006C003C00212058BD002D003D006D0078060
:2004E200328AF005F07CC0E4FD3392D28008A2D2ED13FDEC13FCD5F0F5ECF4F5909000649E
:20050200C007C006C003C00212058BD002D003D006D0070ABA00010B7403B50806E4B50927
:20052200028003020255BA0607BB00047A007B008AF005F07403800225E0D5F0FBFD8AF0BC
:2005420005F079C0E4FC3392D28008A2D2EC13FCE913F9D5F0F5E94205EDF4F5900ABA00F4
:1B056200010B900064C007C006C003C00212058BD002D003D006D0070202551F
:20080300C0F9A4B0999282F8809048656C6C6F20576F726C6400426F6220697320477265AA
:0408230061742100DB
:20057D00AE82AF831EBEFF011FEE4F70F722AE82AF83EE4F600B7DFFDDFE1EBEFF011F805F
:20059D00F122D28090000112057DD281C28090000112057DC28122C28090000112057DD25C
:2005BD0081D28022AF827E00BE08005024EF30E704D2808002C28090000AC007C0061205E2
:1205DD007DD006D007D2818F05ED2DFFC2810E80D72218
:2005EF00D28190000112057DA280C28122AD82AE83AFF0C007C006C00512059F75827E125F
:20060F0005C190000112057D1205EFD005D006D0077B007C00C3EB950BEC6480850CF0635F
:20062F00F08095F0503AEB2DF8EC3EF98F02888289838AF0120775F582C007C006C005C0C1
:20064F0004C0031205C190000112057D1205EFD003D004D005D006D0070BBB00B80C80B5D9
:20066F000205B4AF8274F05FFEEFC454F0FF5307F0740C4EF50D74084EF50E740C4FF50F0E
:20068F0074084FF510750B04750C0090000D75F0400205FCAF8274F05FFEEFC454F0FF53F6
:2006AF0007F0740D4EF51174094EF512740D4FF51374094FF514750B04750C0090001175C5
:2006CF00F0400205FCAD82AE83AFF08D828E838FF0120775FC60188C820DBD00010EC0078A
:1006EF00C006C0051206A3D005D006D00780DC22B5
:06003500E478FFF6D8FD9F
:200013007900E94400601B7A00900827780175A000E493F2A308B8000205A0D9F4DAF27564
:02003300A0FF2C
:2006FF00E515451660467A01E51525E0F515E516334012F516E5829515E583951640030A60
:20071F0080E6C3E51613F516E51513F515C3E5829515F5F0E58395164005F58385F082C31E
:0D073F00E51613F516E51513F515DAE122A0
:20003B007800E84400600A790175A000E4F309D8FC7800E84400600C7900900001E4F0A3C3
:04005B00D8FCD9FAFA
:20074C007A10E4FBFCE58225E0F582E58333F583EB33FBEC33FCEB9515F5F0EC95164006A7
:09076C00FCABF0438201DADD224E
:0D0006007581161207FFE5826003020003FA
:1C07750020F71430F6148883A88220F507E6A88375830022E280F7E49322E02293
:20079100C2D5E58330E70DD2D5E4C39582F582E49583F583E51630E70BE4C39515F515E479
:1607B1009516F5161206FF30D50BE4C39582F582E49583F583228A
:2007C700C2D5E58330E70DD2D5E4C39582F582E49583F583E51630E70DB2D5E4C39515F5B3
:1807E70015E49516F51612074C30D50BE4C39582F582E49583F583220B
:0407FF0075820022DD
:00000001FF
