:03000000020006F5
:03005F0002000399
:03000300020145B2
:20006200AE82AF83EE4F600B7DFFDDFE1EBEFF011F80F122AE82AF83750BE8750C03C0077A
:20008200C006120440AC82AD83EC247CF582ED3404F583E493F580C2A0900005120062D01D
:2000A20006D007D2A0750BE8750C038E828F83C007C00612040A750B64750C00120440ACCD
:2000C20082AD83EC247CF582ED3404F583E493F580C2A1900005120062D006D007D2A175DF
:2000E2000B64750C008E828F83C007C00612040A750B0A750C00120440AC82AD83EC247CF4
:20010200F582ED3404F583E493F580C2A2900005120062D006D007D2A2750B0A750C008EB6
:20012200828F8312040AAE82AF83EE247CF582EF3404F583E493F580C2A3900005120062A9
:20014200D2A322E4FEFFF508F509FAFB750A017846F9C3E498748089F063F08095F0502E7C
:20016200B2B688828983C007C006C003C002C001C000120062900005120062D000D001D07E
:2001820002D003D006D00718B8FF011980C420B52E90000512006230B5FD0508E4B5080210
:2001A20005097404B50806E4B5090280028005E4F508F5097E007F007A007B007590FFE58F
:2001C200084509600302027620B34D900005C007C006C003C002120062D002D003D006D064
:2001E2000720B3340EBE00010F20B3198E828F83C007C006C003C002120076D002D003D0F6
:2002020006D00780E4C3740F9E74A78FF063F08095F050047E007F0020B242900005C00704
:20022200C006C003C002120062D002D003D006D00720B2291EBEFF011F20B2198E828F83A8
:20024200C007C006C003C002120076D002D003D006D00780E4EF30E7047E0F7F278E828F70
:2002620083C007C006C003C002120076D002D003D006D0077401B5080614B50902800280FF
:200282002B8A01E9F4F5900ABA00010BBAFF07BB00047A007B00900064C007C006C003C0FC
:2002A20002120062D002D003D006D0077402B50806E4B5090280028076BA0610BB000DE5A2
:2002C2000AB40100E433F50A7A007B00E50A60288AF005F07403800225E0D5F0FBF4F59035
:2002E200900064C007C006C003C002120062D002D003D006D00780328AF005F078C0E4F9FA
:200302003392D28008A2D2E913F9E813F8D5F0F5E8F4F590900064C007C006C003C002122D
:200322000062D002D003D006D0070ABA00010B7403B50806E4B509028003020190BA06077C
:20034200BB00047A007B008AF005F07403800225E0D5F0FBF98AF005F078C0E4FD3392D2A2
:200362008008A2D2ED13FDE813F8D5F0F5E84201E9F4F5900ABA00010B900064C007C006F7
:12038200C003C002120062D002D003D006D0070201908B
:0A047C00C0F9A4B0999282F88090B4
:06003500E478FFF6D8FD9F
:200013007900E94400601B7A00900486780175A000E493F2A308B8000205A0D9F4DAF27509
:02003300A0FF2C
:20039400E50B450C60467A01E50B25E0F50BE50C334012F50CE582950BE583950C40030A1E
:2003B40080E6C3E50C13F50CE50B13F50BC3E582950BF5F0E583950C4005F58385F082C3C9
:0D03D400E50C13F50CE50B13F50BDAE12237
:20003B007800E84400600A790175A000E4F309D8FC7800E84400600C7900900001E4F0A3C3
:04005B00D8FCD9FAFA
:2003E1007A10E4FBFCE58225E0F582E58333F583EB33FBEC33FCEB950BF5F0EC950C40062A
:09040100FCABF0438201DADD22BC
:0D00060075810C120478E58260030200038E
:20040A00C2D5E58330E70DD2D5E4C39582F582E49583F583E50C30E70BE4C3950BF50BE421
:16042A00950CF50C12039430D50BE4C39582F582E49583F5832296
:20044000C2D5E58330E70DD2D5E4C39582F582E49583F583E50C30E70DB2D5E4C3950BF551
:180460000BE4950CF50C1203E130D50BE4C39582F582E49583F5832222
:040478007582002267
:00000001FF
